:100000000C9400040C944E280C947F280C94B02877
:100010000C94E4280C9418290C9449290C947A29FE
:100020000C94AB290C942A040C942A040C942A04F2
:100030000C94072B0C942A040C942A040C94632B24
:100040000C942A040C942A040C942A040C942A0478
:100050000C942A040C942A040C942A040C943E2B2D
:100060000C942A040C94C82E0C942A040C942A0490
:100070000C942A040C942A040C942A040C942A0448
:100080000C942A040C942A040C942A040C942A0438
:100090000C94092F0C942A040C942A040C944848BC
:1000A0000C942A040C942A040C942A040C942A0418
:1000B0000C942A040C942A040C942A040C942A0408
:1000C0000C942A040C942A040C942A043728392806
:1000D0003B283D283F284428412843285534643490
:1000E00083349234A134B034BF3440354C35583564
:1000F0006435663572357E358A359635A235AE352E
:10010000BA35C635D23572388B38A338B438BE38D4
:10011000D8384039F749054A0C4A0E4A104A124A63
:10012000144A07634236B79BD8A71A39685618AEE7
:10013000BAAB558C1D3CB7CC5763BD6DEDFD753E1C
:10014000F6177231BF000000803F08000000BE9229
:100150002449123EABAAAA2ABECDCCCC4C3E00000C
:100160000080BEABAAAAAA3E00000000BF000000AB
:10017000803F0000000000084178D3BB4387D113C3
:100180003D190E3CC3BD4282AD2B3E68EC8276BE6B
:10019000D98FE1A93E4C80EFFFBE01C4FF7F3F0035
:1001A00000000000706D31303D002C00706D323D5C
:1001B000002C00706D313D002C006E6F323D002C24
:1001C00000636F323D002C00707265737375726549
:1001D0003D002C0068756D69646974793D002C00E0
:1001E00074656D70657261747572653D002C006296
:1001F0006174746572795F4144435F76616C7565C3
:100200003D002C00626174746572795F766F6C7466
:100210006167653D002C00626174746572795F6C82
:100220006576656C3D0023001F856B3F8FC2753F6F
:100230000000803FEC51783F3333733F3333333F1B
:100240006666663F0000803F1F858B3F0000803F51
:10025000CDCCCC3E3333333F0000803F3333933F2C
:100260000000A03FCDCC4C3E0000003F0000803F8E
:10027000666606403333334052B85E3F3333733FD4
:100280000000803F0000803F0000803F9A99593F66
:100290001F856B3F0000803F0000803F0000803FD3
:1002A000CDCC4C3F0000803F0000803FB81E853F12
:1002B000B81E853F6666663F0000803F0000803FB5
:1002C0000000803F0000803F3333333FCDCC4C3FB4
:1002D0000000803F14AE873F295C8F3FCDCC4C3F60
:1002E000CDCC4C3F0000803FCDCC8C3F0000A03FE8
:1002F0006666663F8FC2753F0000803FC3F5883F4A
:10030000C3F5883FCDCC4C3F6666663F0000803F1A
:100310006666863F6666863F6666663F0000803F8B
:100320000000803F6666863F0000803F3D0A873FB1
:10033000E17A843F0000803F85EB813F0000803FF1
:100340003333333F1F856B3F0000803F0000803F09
:100350001F856B3F0000803F0000803F0000803F12
:100360000000803F0000803F3333333FB81E453FDD
:100370000000803FCDCC8C3FD7A3903FCDCCCC3E6E
:10038000CDCC4C3F0000803F9A99993F6666A63FCE
:10039000E17A543F3333733F0000803FA4707D3FC8
:1003A0008FC2753FB81E053FCDCC4C3F0000803F4B
:1003B000295C8F3F3D0A973F0000000000000000CD
:1003C000CDCC4CBD9A9999BE9A9999BE0000000077
:1003D000000000009A9999BE000080BF0000000054
:1003E000713D2A400000A040000000C00000000055
:1003F00000000000000020C000000000000000001D
:10040000000000000AD723BD00000000000000002B
:10041000000080400000704100000000000000006B
:10042000CDCCCCBDCDCCCC3D000080BE00000000CA
:10043000E17AD43F000040409A9919BF00000000C3
:100440000000804000001041CDCCCC3D00000000F9
:10045000000000BF9A99D9BF000000000000000012
:10046000000000000000000000000000000000008C
:100470009A99193ECDCCCC3E00000000000000004F
:10048000CDCC4C3E9A99193F0000000000000000BE
:1004900000000000000000000AD7233CCDCCCC3C7B
:1004A0008FC2F53D0000803E00000000000000000B
:1004B0000000000000000000F4FD543C6F12833C7B
:1004C0001283403DB81E053E8FC2753C0AD7233DBE
:1004D0009A99193E6666A63E000000000AD7233CA2
:1004E000CDCCCC3D6666663E00000000CDCCCCBCD9
:1004F0009A9999BD9A9919BE57726F6E672074695F
:100500006D6520666F726D61742E204D7573742059
:100510006265202264643A68683A6D6D3A737322AA
:1005200000E806C706A50688067106620652063D63
:1005300006270616060A060306EA05CF05BA05AB26
:10054000059B05780572054905253032752563251B
:100550003032752563253032752563253032752597
:100560006325303275256325303275256325303299
:1005700075006572726F720025732C2025303275FC
:100580002F253032752F253032752C2025303275CD
:100590003A253032753A25303275004F6E6365204A
:1005A000706572206D696E757465005B4D696E755E
:1005B0007465735D202D2D3E20005B486F7572734E
:1005C0003A4D696E757465735D202D2D3E20005B7C
:1005D000446174653A486F7572733A4D696E75740B
:1005E0006573205D202D2D3E20005B4461793A48E3
:1005F0006F7572733A4D696E757465735D202D2D3C
:100600003E20005B253032755D005B253032753A47
:10061000253032755D005B253032753A25303275F4
:100620003A253032755D005B253032753A2530321F
:10063000753A253032753A253032755D00496E6362
:100640006F727265637420616C61726D206D6F648E
:1006500065004F6E636520706572207365636F6E11
:1006600064005B5365636F6E64735D202D2D3E20C7
:10067000005B4D696E757465733A5365636F6E64A4
:10068000735D202D2D3E20005B486F7572733A4DCF
:10069000696E757465733A5365636F6E64735D203C
:1006A0002D2D3E20005B446174653A486F7572736E
:1006B0003A4D696E757465733A5365636F6E647312
:1006C0005D202D2D3E20005B4461793A486F7572A4
:1006D000733A4D696E757465733A5365636F6E64F2
:1006E000735D202D2D3E2000416C61726D204D6F99
:1006F0006465206D617463686573200000000809FB
:1007000000000000000000000000000000000000E9
:1007100000000000000000000000000000000000D9
:1007200000000000000000000000000000000000C9
:10073000000102081010204080040810204002022E
:1007400004081020408001028020400420010102A2
:100750000408102001408040800102080408800441
:100760001004020108100505050503030303010138
:100770000104040306060606060606060104050132
:10078000050103020202020202010202050504043D
:100790000304040103040707070707002023262991
:1007A0002C2F32002225282B2E3134002124272AF9
:1007B0002D30334E414E494E495459494E46CDCCC9
:1007C000CC3D0AD7233C17B7D13877CC2B3295953F
:1007D000E6241FB14F0A000020410000C84200403B
:1007E0001C4620BCBE4CCA1B0E5AAEC59D742906C1
:1007F0001027333AA13BB73F9145554AEE4C634E23
:1008000011241FBECFEFD1E2DEBFCDBF13E0A0E0C9
:10081000B2E0EAE7F5EB00E00BBF02C007900D92F3
:10082000A231B107D9F72EE0A2E1B3E001C01D92D9
:10083000AE3FB207E1F713E0C0E0D4E004C0219777
:10084000FE010E942153C73FD107C9F70E949F456F
:100850000C94BB5A0C94000060E081E094E00E948C
:10086000DA2090E09093740380937303019789F4E6
:1008700065E773E081E094E00E947421082E000C8B
:10088000990B909374038093730381E094E00C942C
:1008900087200895CF93DF9361E089E10E94152DB1
:1008A00061E089E10E94302D80E00E94EE2CEC0195
:1008B00060E089E10E94302DCE01DF91CF91089553
:1008C0000F9384E193E00E942C1500E020E040E0CB
:1008D0006EE372E080E797E00E94033384E193E0E7
:1008E0000E94B7166093CA037093CB038093CC0326
:1008F0009093CD0384E193E00E94AE156093D603FC
:100900007093D7038093D8039093D90384E193E045
:100910000E94D5156093D2037093D3038093D403C0
:100920009093D50384E193E00E94DA156093CE039F
:100930007093CF038093D0039093D10384E193E02D
:100940000E94731380E797E00E9451306093B603D2
:100950007093B7038093B8039093B90380E797E04F
:100960000E94373190E09093B5038093B4030E94C6
:100970004A049093B3038093B20360E081E094E073
:100980000E94DA2090E090937403809373030197A0
:1009900009F041C048E853E160E070E081E094E094
:1009A0000E940427082E000C990B909372038093E9
:1009B0007103019781F580914B0790914C07A091AD
:1009C0004D07B0914E078093C2039093C303A09349
:1009D000C403B093C50380914F0790915007A09135
:1009E0005107B09152078093BE039093BF03A09329
:1009F000C003B093C1038091530790915407A09115
:100A00005507B09156078093BA039093BB03A09308
:100A1000BC03B093BD0381E094E00E94872066E2AE
:100A200072E08AE098E00E94783F67E172E08AE035
:100A300098E00E94783F6091B4037091B5038AE01A
:100A400098E00E94AC3E65E172E08AE098E00E9486
:100A5000783F64E072E08AE098E00E94783F40913D
:100A6000B6035091B7036091B8037091B9038AE05F
:100A700098E00E946A3F62E072E08AE098E00E949B
:100A8000783F6FEE71E08AE098E00E94783F6091D5
:100A9000B2037091B3038AE098E00E94AC3E6DEE21
:100AA00071E08AE098E00E94783F60EE71E08AE0B1
:100AB00098E00E94783F4091D6035091D70360910F
:100AC000D8037091D9038AE098E00E946A3F6EEDE6
:100AD00071E08AE098E00E94783F64ED71E08AE07E
:100AE00098E00E94783F4091D2035091D3036091E7
:100AF000D4037091D5038AE098E00E946A3F62EDCA
:100B000071E08AE098E00E94783F68EC71E08AE04A
:100B100098E00E94783F4091CE035091CF036091BE
:100B2000D0037091D1038AE098E00E946A3F66EC9E
:100B300071E08AE098E00E94783F61EC71E08AE021
:100B400098E00E94783F4091CA035091CB03609196
:100B5000CC037091CD038AE098E00E946A3F6FEB6E
:100B600071E08AE098E00E94783F6AEB71E08AE0E9
:100B700098E00E94783F4091C6035091C70360916E
:100B8000C8037091C9038AE098E00E946A3F68EB4D
:100B900071E08AE098E00E94783F63EB71E08AE0C0
:100BA00098E00E94783F4091C2035091C303609146
:100BB000C4037091C5038AE098E00E946A3F61EB2C
:100BC00071E08AE098E00E94783F6CEA71E08AE088
:100BD00098E00E94783F4091BE035091BF0360911E
:100BE000C0037091C1038AE098E00E946A3F6AEAFC
:100BF00071E08AE098E00E94783F64EA71E08AE060
:100C000098E00E94783F4091BA035091BB036091F5
:100C1000BC037091BD038AE098E00E946D3F109282
:100C2000BA031092BB031092BC031092BD03109242
:100C3000BE031092BF031092C0031092C103109222
:100C4000C2031092C3031092C4031092C5030F9104
:100C5000089565E670E084E193E00C9435090F9304
:100C6000CF93DF931F92CDB7DEB700E09E012F5FD9
:100C70003F4F40E068E48FE098E00E943B458111DF
:100C800004C081E09981911101C080E00F90DF9153
:100C9000CF910F9108950F9300E020E041E068E4C8
:100CA0008FE098E00E94B2440F910895EF920F9365
:100CB000CF93DF931F92CDB7DEB783E0E82E02E03B
:100CC0009E012F5F3F4F40E168E48FE098E00E9473
:100CD0006345811101C089810F90DF91CF910F9100
:100CE000EF900895EF920F93CF93DF931F92CDB7BC
:100CF000DEB782E0E82E05E09E012F5F3F4F41E125
:100D000068E48FE098E00E946345811101C0898109
:100D10000F90DF91CF910F91EF9008950F93CF93A4
:100D2000DF931F92CDB7DEB707E09E012F5F3F4FE5
:100D300041E168E48FE098E00E943B45811101C0E9
:100D400089810F90DF91CF910F9108950F93CF93E9
:100D5000DF931F92CDB7DEB7198201E09E012F5FAE
:100D60003F4F42E168E48FE098E00E94F543811133
:100D700001C089810F90DF91CF910F9108950F935A
:100D8000CF93DF931F92CDB7DEB7660F660F460F86
:100D900049830E944B0601E09E012F5F3F4F40E1D7
:100DA00068E48FE098E00E94AC4381E00F90DF910F
:100DB000CF910F9108950F93CF93DF931F92CDB7EB
:100DC000DEB734E0639F400D112432E0439F000DF5
:100DD000112430E1039F200D112429830E944B062A
:100DE00001E09E012F5F3F4F41E168E48FE098E012
:100DF0000E94AC4381E00F90DF91CF910F91089555
:100E00000F93CF93DF931F92CDB7DEB720E8629F99
:100E10004019112449830E944B0601E09E012F5F77
:100E20003F4F42E168E48FE098E00E94AC4381E0EC
:100E30000F90DF91CF910F910895AF92BF92CF9213
:100E4000DF92EF92FF920F931F93CF93DF931F9246
:100E5000CDB7DEB7162FA22E80911508811106C0DE
:100E60008FE098E049830E94CC424981612F8FE056
:100E700098E049830E9444424981842F880F880F5B
:100E80008058B82EBA0C6B2D8FE098E00E94214359
:100E90008FE098E00E940D434981413009F441C040
:100EA00098F0423009F46AC0433009F0DEC06CE2C9
:100EB00071E080E090E00E94B72B44E0612F8FE06A
:100EC00098E00E94F342A3C066E070E080E090E00A
:100ED0000E94B72B43E0612F8FE098E00E94F3421D
:100EE0000E94882B6B017C018FE098E00E945042A9
:100EF000833008F091C00E94882BDC01CB018C1953
:100F00009D09AE09BF0984369105A105B10508F018
:100F100083C00E94882B6C157D058E059F0520F7E8
:100F2000DFCF62E170E080E090E00E94B72B43E009
:100F3000612F8FE098E00E94F3420E94882B6B01A2
:100F40007C018FE098E00E945042833008F096C008
:100F50000E94882BDC01CB018C199D09AE09BF09C9
:100F600084369105A105B10508F088C00E94882B40
:100F70006C157D058E059F0520F7DFCF64E470E0DA
:100F800080E090E00E94B72B43E0612F8FE098E073
:100F90000E94F3420E94882B6B017C018FE098E055
:100FA0000E945042833008F0B3C00E94882BDC01BD
:100FB000CB018C199D09AE09BF0984369105A105A5
:100FC000B10508F0A5C00E94882B6C157D058E0523
:100FD0009F0520F7DFCF8FE098E00E9450428430D9
:100FE00008F0C5C00E94882BDC01CB018C199D093B
:100FF000AE09BF0984369105A105B10508F0B7C057
:101000000E94882B6C157D058E059F0520F70E9498
:10101000882B6B017C01DFCF8FE098E00E9450426B
:10102000833009F003C18FE098E00E945642182FE8
:101030008FE098E00E945642612F70E0762F66277D
:10104000680F711D072E000C880B990B0E94B64F7C
:101050006B017C018FE098E00E945642B82E8FE031
:1010600098E00E940D430130E1F1B7FEE7C06AE469
:1010700072E08AE098E00E946C3EE0C08FE098E069
:101080000E945042833009F0D1C08FE098E00E9466
:101090005642182F8FE098E00E945642612F70E070
:1010A000762F6627680F711D072E000C880B990B91
:1010B0000E94B64F6B017C018FE098E00E9456427F
:1010C000B82E8FE098E00E940D43013071F620E0C9
:1010D00030E040E85EE3C701B6010E946B506B014F
:1010E0007C016A2D70E080E090E00E94B44F9B018B
:1010F000AC0160E070E080E090E40E94D8509B0179
:10110000AC01C701B6010E940C4F6B017C01ADCF51
:101110008FE098E00E945042833009F087C08FE052
:1011200098E00E945642182F8FE098E00E945642A5
:10113000612F70E0762F6627680F711D072E000C57
:10114000880B990B0E94B64F6B017C018FE098E0F1
:101150000E945642B82E8FE098E00E940D43013065
:1011600009F083CF20E030E040E85DE3B4CF8FE0CA
:1011700098E00E945042843009F058C08FE098E017
:101180000E945642182F8FE098E00E945642F82E97
:101190008FE098E00E945642E82E8FE098E00E948F
:1011A0005642B82E8FE098E00E940D438E2D90E0BD
:1011B000A0E0B0E04F2D50E060E070E0C12ED12CF7
:1011C000E12CF12C11FF13C0BA95762F652F542F07
:1011D0004427840F951FA61FB71F7601DD24CC245A
:1011E000BC01CD016C0D7D1D8E1D9F1D13C07601B0
:1011F000DD24CC24762F652F542F44274C0D5D1D04
:101200006E1D7F1D6A017B01C80ED91EEA1EFB1EE2
:10121000C701B6010E94B64F6B017C01013009F095
:1012200024CF20E030E040E85CE355CFC12C80E4DF
:10123000D82E8CE1E82E86ECF82E17CFC701B60128
:101240000F90DF91CF911F910F91FF90EF90DF9062
:10125000CF90BF90AF9008950F93022F242F462F69
:1012600069E60E941D070F910895CF93DF93EC016B
:101270006530710509F451C09CF46230710571F15B
:1012800044F46115710509F45CC061307105E1F049
:101290005EC06330710569F164307105A1F157C01A
:1012A00066367105D1F144F46630710509F43FC02A
:1012B0006536710541F14BC068367105C1F124F006
:1012C0006A367105B1F043C08AE090E09B838A835F
:1012D00089E090E09D838C8381E009C087E090E005
:1012E0009B838A8386E090E09D838C8382E0888361
:1012F0002EC084E090E09B838A8385E090E09D830C
:101300008C8383E0F4CF84E190E09B838A8383E144
:1013100090E09D838C8384E0EACF82E190E09B8320
:101320008A8381E190E09D838C8385E0E0CF80E13A
:1013300090E09B838A838FE090E09D838C8386E09E
:10134000D6CF83E290E09B838A839D838C838FEF4B
:10135000898380E090E0A0E8BFE38E839F83A88725
:10136000B9871A861B861C861D868E879F87A88B49
:10137000B98BFE01CE01C89640E050E060E87FE303
:10138000168A178A108E118E428F538F648F758F35
:101390003896E817F907A1F761E08A810E94152DB8
:1013A00061E08C810E94152D61E08A810E94302DC0
:1013B00060E08C810E94302D1092F30ADF91CF9172
:1013C00008954F925F926F927F928F929F92AF9209
:1013D000BF92CF92DF92EF92FF92CF93DF93EC0117
:1013E0006A017B0120E030E04AE754ECC701B60116
:1013F0000E94074F882309F4A8C020E030E040EAAB
:1014000051E4C701B6010E94074F87FF28C08981B8
:1014100020E1829FC0011124FC01E854FC4F85901B
:101420009590A590B490FC01E454FC4F65917591A2
:1014300085919491A50194010E949A4E20E030E09C
:1014400040E252E40E940C4F2B013C0120E030E0CE
:1014500040EA51E4C701B6010E949B4E69C020E0FA
:1014600030E040EA51E4C701B6010E94665087FDB2
:101470002EC020E030E040E252E4C701B6010E94F5
:10148000074F87FF24C0898120E1829FC00111247A
:10149000FC01E454FC4F85909590A590B490FC011C
:1014A000E054FC4F6591759185919491A50194014B
:1014B0000E949A4E20E030E040EA51E40E940C4F36
:1014C0002B013C0120E030E040EA51E42DC020E057
:1014D00030E040E252E4C701B6010E94665087FD49
:1014E00034C0898120E1829FC0011124FC01E054B5
:1014F000FC4F85909590A590B490FC01EC53FC4F67
:101500006591759185919491A50194010E949A4EDF
:1015100020E030E040E251E40E940C4F2B013C01FE
:1015200020E030E040E252E4C701B6010E949A4E4A
:101530009B01AC01C301B2010E946B509B01AC0145
:10154000C501B4010E949B4E03C060E070E0CB0176
:10155000DF91CF91FF90EF90DF90CF90BF90AF9051
:101560009F908F907F906F905F904F9008954F92D3
:101570005F926F927F928F929F92AF92BF92CF9223
:10158000DF92EF92FF92CF93DF93EC016A017B0130
:1015900020E030E04AE754ECC701B6010E94074F53
:1015A000882309F4D7C020E030E0A901C701B601C3
:1015B0000E94074F87FF28C0898124E1829FC001D4
:1015C0001124FC01E85DFD4F85909590A590B490A5
:1015D000FC01E45DFD4F6591759185919491A501A4
:1015E00094010E949A4E20E030E040E252E40E94D2
:1015F0000C4F2B013C0120E030E040EA51E4C701F0
:10160000B6010E949B4E8CC020E030E0A901C701CA
:10161000B6010E94665087FD1AC020E030E040EA23
:1016200051E4C701B6010E94074F87FF10C08981AE
:1016300024E1829FC0011124FC01E45DFD4F8590EF
:101640009590A590B490FC01E05DFD4F23C020E093
:1016500030E040EA51E4C701B6010E94665087FDC0
:101660002EC020E030E040E252E4C701B6010E9403
:10167000074F87FF24C0898124E1829FC001112484
:10168000FC01E05DFD4F85909590A590B490FC0124
:10169000EC5CFD4F6591759185919491A501940144
:1016A0000E949A4E20E030E040EA51E40E940C4F44
:1016B0002B013C0120E030E040EA51E42DC020E065
:1016C00030E040E252E4C701B6010E94665087FD57
:1016D00034C0898124E1829FC0011124FC01EC5CAB
:1016E000FD4F85909590A590B490FC01E85CFD4F6E
:1016F0006591759185919491A50194010E949A4EEE
:1017000020E030E040E251E40E940C4F2B013C010C
:1017100020E030E040E252E4C701B6010E949A4E58
:101720009B01AC01C301B2010E946B509B01AC0153
:10173000C501B4010E949B4E04C060E070E080E8E7
:101740009FE39B01AC0160E070E080E89FE30E94B2
:101750000C4F04C060E070E080E89FE3DF91CF9120
:10176000FF90EF90DF90CF90BF90AF909F908F90C1
:101770007F906F905F904F9008958F929F92AF925D
:10178000BF92FF920F931F93CF93DF9300D01F92CE
:10179000CDB7DEB7F62E49015A011B8202E09E0149
:1017A0002F5F3F4F4CE46AE28FE098E00E94F543E0
:1017B00020E030E543EC57E4C501B4010E94074F37
:1017C0001A811816CCF120E030E543EC57E4C5014E
:1017D000B4010E940C4F20E030E040E053E40E944E
:1017E0006B500E94854F6B83FF20A9F01460198312
:1017F00001E09E012F5F3F4F41E46AE28FE098E0F5
:101800000E94AC439B8180E8891B8B839E012D5FE6
:101810003F4F40E01CC01061198301E09E012F5F23
:101820003F4F41E46AE28FE098E00E94AC439E01A2
:101830002D5F3F4F40E10BC0FF2011F01B7F01C027
:101840001F7E1B8301E09E012D5F3F4F41E46AE252
:101850008FE098E00E94AC430F900F900F90DF91C3
:10186000CF911F910F91FF90BF90AF909F908F905D
:1018700008950F931F93CF93DF9300D0CDB7DEB7BA
:10188000162F02E09E012F5F3F4F4CE46AE28FE08B
:1018900098E00E94F5438A818B3FA9F18B7F8B3EB4
:1018A00091F1112329F09E012F5F3F4F4CE005C0BD
:1018B00002E09E012F5F3F4F4CE16AE28FE098E02B
:1018C0000E94F5438981682F70E0762F66278A8110
:1018D000680F711D112331F080E890E09C01261BF8
:1018E000370BB90180E090E00E94B44F20E030E077
:1018F00040E05CE30E946B5020E030E543EC57E4AD
:101900000E946B5004C060E074E284E799E40F9099
:101910000F90DF91CF911F910F9108952F923F92D9
:101920004F925F926F927F928F929F92AF92BF92EF
:10193000CF92DF92EF92FF920F931F93CF93DF939B
:1019400000D000D0CDB7DEB71C01762E69017A0138
:1019500043E060E08AED93E00E94000764E670E0F7
:1019600080E090E00E94B72B04E010E0812C912CE5
:10197000540121E040E0672D8BED93E00E942C099B
:101980009B01AC01C501B4010E949B4E4B015C015F
:101990000150110971F720E030E040E85EE30E9459
:1019A0006B5069837A838B839C838AED93E00E94DA
:1019B0008E06882341F0813071F4412C512C612C2A
:1019C00035E4732E0BC0412C40E4542E4EE4642EBB
:1019D00045E4742E03C0412C512C32018AED93E072
:1019E0000E947206813049F0823061F0811114C08A
:1019F0002DEC3CEC4CE45EE309C020E030E040E03C
:101A00005FE304C02FE135E84BE25FE3C301B201BD
:101A10000E946B502B013C018AED93E00E94560618
:101A2000082F082E000C110B883058F494E0899F81
:101A3000F0011124EC5AFD4F80809180A280B38088
:101A400003C0812C912C540160E0F10184810E943B
:101A5000302DA301920169817A818B819C810E9442
:101A60009A4EA50194010E940C4F20E030E04AE715
:101A700054E40E946B5001151105B1F00150110999
:101A800023E0000F111F2A95E1F7020D131DF80145
:101A900026893789408D518D0E949B4EF801228DF9
:101AA000338D448D558D10C0F101E25BFF4F2081D5
:101AB0003181428153810E949B4EF101EE5AFF4FCA
:101AC00020813181428153810E940C4F4B015C0186
:101AD00020E030E04AE754E4F101628573858485B3
:101AE00095850E940C4F9B01AC01C501B4010E9479
:101AF0009A4E4B015C01F1018181882319F08950D4
:101B0000823020F4B7FAB094B7F8B094B701A601C8
:101B1000C1010E94B70A9B01AC01C501B4010E943A
:101B20006B5020E030E04AE754E40E946B50F10132
:101B300026813781408551850E940C4F4B015C0105
:101B4000B701A601C1010E94E1099B01AC01C501D9
:101B5000B4010E949A4E6B017C0120E030E0A901A3
:101B60000E94074F87FF03C0C12CD12C7601C7010B
:101B7000B6010F900F900F900F90DF91CF911F91B2
:101B80000F91FF90EF90DF90CF90BF90AF909F901C
:101B90008F907F906F905F904F903F902F9008951F
:101BA0007F928F929F92AF92BF92CF92DF92EF92ED
:101BB000FF920F931F93CF93DF93EC01762E490191
:101BC0005A0104E010E0C12CD12C760121E040E064
:101BD000672D8BED93E00E942C099B01AC01C7019E
:101BE000B6010E949B4E6B017C010150110971F7F7
:101BF00060E08C810E94302D20E030E040E85EEB18
:101C0000C701B6010E946B502E893F89488D598DBE
:101C10000E949A4E2A8D3B8D4C8D5D8D0E940C4FFB
:101C20002A853B854C855D850E949A4E6B017C011F
:101C3000B501A401CE010E94E1099B01AC01C701DD
:101C4000B6010E949A4E6B017C01B501A401CE0140
:101C50000E94B70A9B01AC01C701B6010E946B50FC
:101C60002E813F81488559850E940C4F6B017C0174
:101C700020E030E0A9010E94074F87FF03C0C12C7C
:101C8000D12C7601C701B601DF91CF911F910F9141
:101C9000FF90EF90DF90CF90BF90AF909F908F908C
:101CA0007F900895BF92CF92DF92EF92FF920F93B1
:101CB0001F93CF93DF93EC01B62E04E010E0C12C0C
:101CC000D12C760121E040E06B2D8BED93E00E945A
:101CD0002C099B01AC01C701B6010E949B4E6B0110
:101CE0007C010150110971F760E08C810E94302D58
:101CF00020E030E040E85EE3C701B6010E946B508F
:101D00002E893F89488D598D0E949A4E2A8D3B8D90
:101D10004C8D5D8D0E940C4F2A853B854C855D85E1
:101D20000E949A4E2E813F81488559850E946B50B2
:101D30006B017C0120E030E0A9010E94074F87FF82
:101D400003C0C12CD12C7601C701B601DF91CF9120
:101D50001F910F91FF90EF90DF90CF90BF9008956B
:101D60003F924F925F926F927F928F929F92AF922B
:101D7000BF92CF92DF92EF92FF920F931F93CF9378
:101D8000DF9300D000D000D0CDB7DEB78C01362E67
:101D900049015A0143E060E08AED93E00E940007A8
:101DA00061E0C8010E94390C2B013C0120E030E0C9
:101DB000A90161E0C8010E94BD0B68EE73E080E0FC
:101DC00090E00E94B72B88E090E09A838983C12C31
:101DD000D12C760164E670E080E090E00E94B72BA1
:101DE00021E040E0632D8BED93E00E942C099B01E4
:101DF000AC01C701B6010E949B4E6B017C01E981D9
:101E0000FA813197FA83E983EF2B21F7A30192013D
:101E100061E0C8010E94BD0B60E0C8010E94390C5E
:101E20002B013C0120E030E040E05EE3C701B60159
:101E30000E946B50A30192010E940C4F20E030E001
:101E40004AE754EC0E946B50F80126893789408D8F
:101E5000518D0E949B4EF801228D338D448D558DFE
:101E60000E940C4F2B013C0160E0C8010E94390C1C
:101E700069837A838B839C8320E030E0A90160E052
:101E8000C8010E94BD0B60ED77E080E090E00E9409
:101E9000B72B88E090E09E838D83C12CD12C7601F6
:101EA00064E670E080E090E00E94B72B21E040E023
:101EB000632D8BED93E00E942C099B01AC01C701BF
:101EC000B6010E949B4E6B017C01ED81FE81319732
:101ED000FE83ED83EF2B21F729813A814B815C81D1
:101EE00060E0C8010E94BD0B61E0C8010E94390C8E
:101EF00069837A838B839C8320E030E040E05EE35B
:101F0000C701B6010E946B5029813A814B815C81E7
:101F10000E940C4F20E030E04AE754E40E946B50EE
:101F2000F801268D378D40A151A10E949B4EF801EA
:101F300022A133A144A155A10E940C4F6B017C0149
:101F400020E030E04AE754E4F80162857385848537
:101F500095850E940C4F9B01AC01C301B2010E9408
:101F60009A4E2B013C0120E030E04AE754E4F801AE
:101F700066857785808991890E940C4F9B01AC0111
:101F8000C701B6010E949A4E9B01AC01C301B20188
:101F90000E949A4E6B017C01B501A401C8010E9408
:101FA000B70A9B01AC01C701B6010E946B5020E04B
:101FB00030E04AE754E40E946B50F80126813781F3
:101FC000408551850E940C4F6B017C0120E030E080
:101FD000A9010E94074F87FF03C0C12CD12C7601B5
:101FE00060E0F80184810E94302DC701B601269679
:101FF0000FB6F894DEBF0FBECDBFDF91CF911F911A
:102000000F91FF90EF90DF90CF90BF90AF909F9097
:102010008F907F906F905F904F903F9008952F9298
:102020003F924F925F926F927F928F929F92AF9268
:10203000BF92CF92DF92EF92FF920F931F93CF93B5
:10204000DF93CDB7DEB727970FB6F894DEBF0FBE8C
:10205000CDBF1C01698349015A01EA82FB820C83CE
:102060001D8343E060E08AED93E00E94000788E072
:10207000682E712CC12CD12C760101E020E0498121
:1020800069E68BED93E00E941D079B01AC01C7013F
:10209000B6010E949B4E6B017C0181E0681A7108B9
:1020A00061F720E030E040E05EEBC701B6010E943E
:1020B0006B5020E038ED46ED57E40E940C4F20E0D5
:1020C00030E04AE754E40E946B50F10126893789D9
:1020D000408D518D0E949B4EF101228D338D448D98
:1020E000558D0E940C4F6B017C0120E030E04AE7E7
:1020F00054E4F10162857385848595850E940C4FB7
:102100009B01AC01C701B6010E949A4E2B013C0114
:1021100088E090E09F838E83C12CD12C760101E072
:1021200020E049816AE68BED93E00E941D079B0148
:10213000AC01C701B6010E949B4E6B017C01EE8190
:10214000FF813197FF83EE83EF2B49F720E030E0EA
:1021500040E05EEB0E946B5020E038ED46ED57E426
:102160000E940C4F20E030E04AE754E40E946B509C
:10217000F101268D378D40A151A10E949B4EF101A6
:1021800022A133A144A155A10E940C4F6B017C01F7
:1021900020E030E04AE754E4F101668577858089E4
:1021A00091890E940C4F9B01AC01C701B6010E94AE
:1021B0009A4E9B01AC01C301B2010E949A4E6B0181
:1021C0007C01B501A401C1010E94B70A9B01AC01C9
:1021D000C701B6010E946B506B017C01F101818146
:1021E0008E30C1F422893389448955896A817B8183
:1021F0008C819D810E946B5020E030E04AE754E4DE
:102200000E940C4F9B01AC01C701B6010E949A4E7F
:102210006B017C0120E030E04AE754E4C701B601DD
:102220000E946B50F10126813781408551850E94C3
:102230000C4F6B017C0120E030E0A9010E94074FA8
:1022400087FF03C0C12CD12C760160E0F1018481AD
:102250000E94302DC701B60127960FB6F894DEBF55
:102260000FBECDBFDF91CF911F910F91FF90EF90E7
:10227000DF90CF90BF90AF909F908F907F906F90A6
:102280005F904F903F902F900895AF92BF92CF9262
:10229000DF92EF92FF920F931F93CF93DF9300D0C3
:1022A00000D01F92CDB7DEB77C016C018AE5C80E65
:1022B000D11C01E0960140E060E58FE098E00E94CB
:1022C000F54397012F5F3F4F41E060E58FE098E0D5
:1022D0000E94F543F7018181843170F4803108F068
:1022E000E3C08D30B1F008F45EC08E3009F4DCC07C
:1022F0008F3009F072C10DC08C3F09F454C018F43E
:102300008B3F39F06AC18D3F09F4CEC08E3F09F092
:1023100064C104E09E012F5F3F4F42E060E58FE023
:1023200098E00E94F54389819A81AB81BC81F701D5
:1023300086839783A087B1879E012F5F3F4F48E038
:1023400060E58FE098E00E94F54389819A81AB8136
:10235000BC81F70182879387A487B5879E012F5F91
:102360003F4F40E160E58FE098E00E94F5438981AE
:102370009A81AB81BC81F701868B978BA08FB18F3F
:102380009E012F5F3F4F48E160E58FE098E00E949B
:10239000F54389819A81AB81BC81F701828F938F4C
:1023A000A48FB58F1AC104E09E012F5F3F4F42E01A
:1023B00060E58FE098E00E94F54389819A81AB81C6
:1023C000BC81F70186839783A087B1879E012F5F29
:1023D0003F4F48E060E58FE098E00E94F543898137
:1023E0009A81AB81BC81F70182879387A487B587E7
:1023F000570114E14CEF410F04E09E012F5F3F4F66
:1024000060E58FE098E00E94F54389819A81AB8175
:10241000BC81F501868B978BA08FB18F9E012F5FBA
:102420003F4F412F60E58FE098E00E94F54389819E
:102430009A81AB81BC81F501828F938FA48FB58F78
:10244000F8E0AF0EB11C185F1C34A1F6F6018081D4
:10245000833008F4C2C09E012F5F3F4F48E460E51F
:102460008FE098E00E94F54389819A81AB81BC811D
:10247000F701E25BFF4F80839183A283B3839E01C8
:102480002F5F3F4F4CE460E58FE098E00E94F543FA
:1024900089819A81AB81BC81F701EE5AFF4F80831D
:1024A0009183A283B38399C004E09E012F5F3F4FC5
:1024B00042E060E58FE098E00E94F54389819A81CF
:1024C000AB81BC81F70186839783A087B1879E018A
:1024D0002F5F3F4F48E060E58FE098E00E94F543B2
:1024E00089819A81AB81BC81F70182879387A48718
:1024F000B5879E012F5F3F4F4CE060E58FE098E08D
:102500000E94F54389819A81AB81BC81F701828B5E
:10251000938BA48BB58B9E012F5F3F4F40E160E50D
:102520008FE098E00E94F54389819A81AB81BC815C
:10253000F701868B978BA08FB18F9E012F5F3F4F46
:1025400044E160E58FE098E00E94F54389819A813B
:10255000AB81BC81F701828F938FA48FB58F9E01D1
:102560002F5F3F4F48E160E58FE098E00E94F54320
:1025700089819A81AB81BC81F701868F978FA0A357
:10258000B1A39E012F5F3F4F4CE160E58FE098E0E3
:102590000E94F54389819A81AB81BC81F70182A3B6
:1025A00093A3A4A3B5A316861786108A118AF601F1
:1025B0008081833091F49E012F5F3F4F40E360E5BF
:1025C0008FE098E00E94F54389819A81AB81BC81BC
:1025D000F70186879787A08BB18BF60180818330C6
:1025E00020F101E09E012B5F3F4F46E060E58FE068
:1025F00098E00E94F543F701868137812085918517
:1026000089833A832B839C832181F60190819227D1
:10261000892783272B81982F92272C81922781E06D
:102620002D81291719F080E001C081E00F900F90F3
:102630000F900F900F90DF91CF911F910F91FF900E
:10264000EF90DF90CF90BF90AF9008951F93CF93FE
:10265000DF93EC01162F61E08C810E94302D64E63F
:1026600070E080E090E00E94B72B40E0113011F460
:1026700061E001C060E08AED93E00E94000760E045
:102680008C810E94302D61E08A810E94302D409122
:10269000F30A21E030E0C901088002C0880F991FC9
:1026A0000A94E2F7809584238093F30A8091F30AD9
:1026B000811107C041E060E080E797E00E94F62FBB
:1026C00004C08091F30A813041F461E08EE00E9401
:1026D000152D60E08EE00E94302D8091F30ADF918D
:1026E000CF911F91089560E00C9426138F929F92D2
:1026F000AF92BF92CF92DF92EF92FF920F931F9310
:10270000CF93DF937C014A01A62E072FFC01818124
:10271000982F9D7F9D3009F4F7C08B3F09F4F4C0DA
:102720008E3F09F4F1C061E0F70184810E94302DF1
:1027300064E670E080E090E00E94B72B8AED93E0C1
:102740000E942F06811107C060E0F70184810E947A
:10275000302D8FEFDFC020E030E04AE754ECB401C9
:102760008A2D902F0E94074FF701C18181110AC065
:10277000CE3021F180EF8C0F843038F1CA3061F512
:10278000D2E06CC020E030E040EE50E4B4018A2D8D
:10279000902F0E946650181634F4CE3021F080EF4E
:1027A0008C0F8430C8F4B4018A2D902F0E94854F7D
:1027B000D62FB82CC92CDA2C102F0FC0B12C20E446
:1027C000C22E3CE1D32E17E466C0B12C80E4C82EA3
:1027D0009CE1D92E17E401C0D5E0C93009F449C005
:1027E000B8F4C43091F158F4C13009F442C008F48F
:1027F00040C0C23009F474C0C330D9F17FC0C630C4
:10280000C1F118F1C730A9F1C83009F469C076C028
:10281000C03109F440C040F4CB3059F1F8F0CC306D
:1028200041F1CE30C1F16AC0C331A9F128F4C13100
:1028300049F1C23181F162C0CC3F09F451C0CD3FB2
:1028400009F05CC042E060E04DC042E06D2F8AEDCF
:1028500093E00E94BF0601E026E04AC042E06D2FEF
:102860008AED93E00E94BF0600E02AE041E060E0CC
:1028700041C042E06D2F8AED93E00E94BF0601E067
:1028800020E036C041E060E08AED93E00E94BF06A0
:1028900001E026E008C041E060E08AED93E00E949C
:1028A000BF0601E020E041E061E08AED93E00E9494
:1028B000DB06F701E65AFF4F80818330F9F02B2DBC
:1028C0003C2D4D2D512F60E0C7010E94BD0B2B2DDB
:1028D0003C2D4D2D512F61E0C7010E94BD0B0EC054
:1028E00042E06D2F8AED93E00E94BF0601E028E0F0
:1028F00041E061E08AED93E00E94DB0643E060E0A6
:102900008AED93E00E94000760E0F70184810E9455
:10291000302D81E0DF91CF911F910F91FF90EF90CB
:10292000DF90CF90BF90AF909F908F9008958F923F
:102930009F92AF92BF92EF92FF921F93CF93DF933C
:102940007C014A015B0161E08EE00E94152D61E08F
:102950008EE00E94302D8091F30A882309F460C034
:102960008091E10A9091E20A81FF5AC02091F30A16
:10297000C1E0D0E0CE01F701008002C0880F991FAE
:102980000A94E2F7822B8093F30A60E082810E942E
:10299000302D61E0F70184810E94302D61E070E00C
:1029A00080E090E00E94B72BC7010E944511811181
:1029B0000FC09091F30AF701008002C0CC0FDD1F19
:1029C0000A94E2F7C095C923C093F30A10E039C016
:1029D00068EE73E080E090E00E94B72BB501A4019F
:1029E000C7010E947613182FF70190818091F30A96
:1029F00001C0CC0F9A95EAF7113069F4C82BC09347
:102A0000F30A0E94882BF701EA5AFF4F6083718313
:102A10008283938316C0C095C823C093F30A11C064
:102A200040E060E080E797E00E94F62F64E670E007
:102A300080E090E00E94B72B8CED93E00E94D51BC4
:102A400095CF812FDF91CF911F91FF90EF90BF9095
:102A5000AF909F908F90089540E050E06AE774EC4B
:102A60000C949714BF92CF92DF92EF92FF920F9344
:102A70001F93CF93DF93EC01611131C099819D5079
:102A8000943068F161E08C810E94302D64E670E042
:102A900080E090E00E94B72B8AED93E00E94A606AA
:102AA000B82E47E060E08AED93E00E94000704E062
:102AB00010E0C12CD12C760121E040E060E08BEDEC
:102AC00093E00E942C099B01AC01C701B6010E9452
:102AD0009B4E6B017C010150110971F70FC040E062
:102AE00061E08CED93E0DF91CF911F910F91FF900A
:102AF000EF90DF90CF90BF900C94FB1B20E030E074
:102B000040E85EE30E946B5020E030E64AEE54E479
:102B10000E949A4E25E437E442EF5DEB0E946B5031
:102B200020E030E040E252E40E949A4E6B017C01CA
:102B30004B2D60E08AED93E00E94000760E08C81FD
:102B40000E94302DC701B601DF91CF911F910F91E7
:102B5000FF90EF90DF90CF90BF900895CF92DF92DB
:102B6000EF92FF92CF93DF93EC0161E00E94321568
:102B70006B017C0120E030E04AE754EC0E94074FF3
:102B800081110AC060E0CE01DF91CF91FF90EF90FC
:102B9000DF90CF900C943215C701B601DF91CF9131
:102BA000FF90EF90DF90CF90089561E08CED93E07F
:102BB0000C94421E40E061E08CED93E00C94EB1C21
:102BC0006F927F928F929F92AF92BF92DF92EF921D
:102BD000FF920F931F93CF93DF9300D000D0CDB718
:102BE000DEB77091F30AE72FF0E0DC010C9002C031
:102BF000F595E7950A94E2F7E0FF9FC04701580179
:102C0000D62E3C0161E0FC01848129833A834B8309
:102C10005C830E94302D64E670E080E090E00E94CA
:102C2000B72BD30111969C9129813A814B815C810C
:102C3000943160F4903108F072C09D3041F190F011
:102C40009E3009F44EC09F30B9F17CC09C3F51F0DA
:102C500018F49B3F89F176C09D3F09F442C09E3F26
:102C6000B1F070C06D2DC3010F900F900F900F90B9
:102C7000DF91CF911F910F91FF90EF90DF90BF9068
:102C8000AF909F908F907F906F900C948E0C6D2DD5
:102C9000C3010F900F900F900F90DF91CF911F9174
:102CA0000F91FF90EF90DF90BF90AF909F908F902B
:102CB0007F906F900C94D00D6D2DC3010F900F90ED
:102CC0000F900F90DF91CF911F910F91FF90EF9098
:102CD000DF90BF90AF909F908F907F906F900C94FB
:102CE000520EF301E65AFF4F8081833019F48501BB
:102CF00074011EC06D2DC3010F900F900F900F90A7
:102D0000DF91CF911F910F91FF90EF90DF90BF90D7
:102D1000AF909F908F907F906F900C94B00EF301C6
:102D2000E65AFF4F8081833029F7E12CF12C87018F
:102D30006D2DC3010E940F1008C060E070E080E8B4
:102D40009FEB03C060E070E0CB010F900F900F90FD
:102D50000F90DF91CF911F910F91FF90EF90DF9037
:102D6000BF90AF909F908F907F906F900895EF925B
:102D7000FF920F931F93CF93DF93EC0140E061E04C
:102D80008CED93E00E94FB1B9B01AC01E12CF12C2C
:102D900000E010E462E0CE010E94E015DF91CF91E7
:102DA0001F910F91FF90EF9008958F929F92AF9295
:102DB000BF92CF92DF92EF92FF920F931F93FC018D
:102DC0000081118120E030E06A017B0184E0F5940C
:102DD000E794D794C7948A95D1F7C01AD10AE20A2A
:102DE000F30A93E075956795579547959A95D1F7AE
:102DF000000F111F221F331FDB01CA01801B910B23
:102E0000A20BB30B9C01AD01A281B3810E9444537C
:102E10004B015C01BBE0B594A79497948794BA9555
:102E2000D1F7A7019601C701B6010E949C529B01F0
:102E3000AC011CE055954795379527951A95D1F724
:102E4000A481B5810E944453AB01BC010EE075958D
:102E50006795579547950A95D1F79A01AB01280DCB
:102E6000391D4A1D5B1D21A332A343A354A3A5E032
:102E7000B0E00E943953DC01CB0180589F4FAF4F27
:102E8000BF4F692F7A2F8B2F992787FD9A950E9424
:102E9000B64F20E030E048EC52E40E940C4F1F9106
:102EA0000F91FF90EF90DF90CF90BF90AF909F90E9
:102EB0008F9008952F923F924F925F926F927F92E0
:102EC0008F929F92AF92BF92CF92DF92EF92FF923A
:102ED0000F931F93CF93DF93CDB7DEB7A4970FB6B1
:102EE000F894DEBF0FBECDBF9A8389834C8F5D8F70
:102EF0006E8F7F8FFC0181A192A1A3A1B4A16C016F
:102F00007D01FF0CCC08DC2C76019C01AD016C2D01
:102F10007C2D8C2D9C2D345F414051096109710934
:102F2000810991092CA33BA34B835C836D837E8332
:102F30008F83988759016A017B018C010E944C5351
:102F40002C8B3D8B4E8B5F8B688F798F8A8F9B8FFD
:102F5000E981FA81F089F8A3E981FA81F189F98799
:102F6000E981FA81F685F9A3E981FA81F785FA8783
:102F7000E981FA81F485FAA3E981FA81F585FB8775
:102F8000E981FA81B184A0841B2D110F110BC12E90
:102F9000D12EE12EF12E012F2CA13BA14B815C8182
:102FA0006D817E818F8198850E944C530CE00E9438
:102FB000A75419012A013B014C01E981FA81B3842C
:102FC000A2841B2D110F110BC12ED12EE12EF12E3B
:102FD000012F2C893D894E895F89688D798D8A8D75
:102FE0009B8D0E944C5308E00E94C0545101620125
:102FF000730184010E94DE5470588F4F9F4FE98106
:10300000FA81268037805101C12CD12CE12CF12C82
:1030100000E010E00E944C5301E20E94C0542C8753
:103020003D874E875F87688B798B8A8B9B8BA0E06F
:103030000E94F05409F451C1A8A01985110F110B79
:10304000B984C12ED12EE12EF12E012F2C893D897C
:103050004E895F89688D798D8A8D9B8D0E944C5336
:1030600019012A013B014C01A9A01A85110F110B6E
:10307000BA84C12ED12EE12EF12E012F2CA13BA11D
:103080004B815C816D817E818F8198850E944C533C
:1030900001E10E94A75459016A017B018C01910151
:1030A000A201B301C4010E94DE5419012A013B01AF
:1030B0004C0180E090E0A0E1B0E02C8D3D8D4E8D84
:1030C0005F8D821B930BA40BB50B6C017D01FF0C74
:1030D000CC08DC2C76019C01AD016C2D7C2D8C2D57
:1030E0009C2D0FE10E94A754F901B42FA52F6E83E8
:1030F0007F838B839C832AA19B85990F990B3B85AA
:10310000492F592F692F792F892F03E20E94A75445
:1031100059016A017B018C019101A201B301C40133
:103120000E94DE5459016A017B018C019F014B2FE3
:103130005A2F6E817F818B819C810E94E7544901C7
:10314000542E652EB62FA72FF82FE92F03E00E94EB
:10315000A7545401C52CD62CEB2EFA2E0F2F1E2F60
:103160000E94E75459016A017B01782E192F03E070
:103170000E94A754072D0E94E75403E00E94A75421
:103180005401C52CD62CEB2EFA2E0F2F1E2F0E9489
:10319000E75402E00E94A7540F2F0E94E75401E079
:1031A0000E94A7540F2F0E94E754AC84BD84CE84A4
:1031B000DF84E888F9880A891B890E94D2532A870C
:1031C00039874B835C836D837E838F8398870DE083
:1031D0000E94C054922E832E742E652E562E472E9A
:1031E000382E292EE981FA8137892689932F990F64
:1031F000990BA92CB82CC72CD62CE52CF42C032D1C
:10320000122D492F592F692F792F892F0E944C5346
:103210000E944C5309E10E94C05459016A017B018C
:103220008C012A8539854B815C816D817E818F81FE
:1032300098850E94DE5419012A013B014C01E98165
:10324000FA8135892489932F990F990BAA84B9841F
:10325000CB80DC80ED80FE800F811885492F592FAF
:10326000692F792F892F0E944C5303E10E94C0548B
:1032700059016A017B018C019101A201B301C401D2
:103280000E94DE5408E00E94C054522E632E742E19
:10329000852E962E472EDC01E981FA813389228919
:1032A000932F990F990B492F592F692F792F892F18
:1032B00004E00E94A75459016A017B018C01252D6D
:1032C000362D472D582D692D742DCD010E94DE54C9
:1032D000B901CA010E94B44F03C060E070E0CB01A5
:1032E000A4960FB6F894DEBF0FBECDBFDF91CF918D
:1032F0001F910F91FF90EF90DF90CF90BF90AF9014
:103300009F908F907F906F905F904F903F902F9005
:1033100008954F925F926F927F928F929F92AF9299
:10332000BF92CF92DF92EF92FF92FC0181A092A018
:10333000A3A0B4A02CE2921A21E0A20AB1086A016B
:103340007B013EE0CC0CDD1CEE1CFF1C3A95D1F756
:10335000848D958D092E000CAA0BBB0B44E1880FC0
:10336000991FAA1FBB1F4A95D1F7C81AD90AEA0AA2
:10337000FB0AA68DB78DA50194010E944453C61A7D
:10338000D70AE80AF90A30E4D30EE11CF11C5FE029
:10339000F594E794D794C7945A95D1F7A0A10A2E33
:1033A000000CBB0BA50194010E9444532B013C016E
:1033B0006AE075946794579447946A95D1F7A38D02
:1033C000B0E00E943953DC01CB017BE0B595A795B5
:1033D000979587957A95D1F7BC01CD0170588F4F9D
:1033E0009F4FA30192010E949C52DC01CB012AE075
:1033F000B595A795979587952A95D1F79C01AD012D
:10340000405E5F4FA18DB28D0E944453DC01CB0121
:10341000905EAF4FBF4FBC01CD013EE095958795C3
:10342000779567953A95D1F7A70196010E949C522E
:103430006B017C014FE095958795779567954A9547
:10344000D1F79B01AC010E949C529B01AC0167E04B
:1034500055954795379527956A95D1F7A08DB0E09A
:103460000E943953DC01CB0174E0B595A79597957F
:1034700087957A95D1F7A7019601281B390B4A0B3E
:103480005B0BDA01C90157FD0BC081309105A10525
:1034900039E1B30744F080E090E0A0E0B9E103C077
:1034A00080E090E0DC01BC01CD012CE09595879592
:1034B000779567952A95D1F70E94B64FFF90EF90C8
:1034C000DF90CF90BF90AF909F908F907F906F9044
:1034D0005F904F9008950F93CF93DF931F92CDB7D6
:1034E000DEB701E09E012F5F3F4F40ED67E78FE0C1
:1034F00098E00E94F54381E09981903609F080E0E0
:103500000F90DF91CF910F910895EF92FF920F935B
:10351000CF93DF9300D000D0CDB7DEB77C0102E0BF
:103520009E012F5F3F4F48E867E78FE098E00E94D9
:10353000F5438A8190E0982F88272981820F911D79
:10354000F701918380839E012F5F3F4F4AE867E731
:103550008FE098E00E94F5438A8190E0982F8827B9
:103560002981820F911DF701938382839E012F5F32
:103570003F4F4CE867E78FE098E00E94F5438A816F
:1035800090E0982F88272981820F911DF70195835C
:1035900084839E012F5F3F4F4EE867E78FE098E0FE
:1035A0000E94F5438A8190E0982F88272981820F15
:1035B000911DF701978386839E012F5F3F4F40E95E
:1035C00067E78FE098E00E94F5438A8190E0982FAA
:1035D00088272981820F911DF701918780879E019D
:1035E0002F5F3F4F42E967E78FE098E00E94F54385
:1035F0008A8190E0982F88272981820F911DF701F9
:10360000938782879E012F5F3F4F44E967E78FE0F2
:1036100098E00E94F5438A8190E0982F88272981BD
:10362000820F911DF701958784879E012F5F3F4F81
:1036300046E967E78FE098E00E94F5438A8190E0D1
:10364000982F88272981820F911DF70197878687F8
:103650009E012F5F3F4F48E967E78FE098E00E94A7
:10366000F5438A8190E0982F88272981820F911D48
:10367000F701918B808B9E012F5F3F4F4AE967E7EF
:103680008FE098E00E94F5438A8190E0982F882788
:103690002981820F911DF701938B828B9E012F5FF1
:1036A0003F4F4CE967E78FE098E00E94F5438A813D
:1036B00090E0982F88272981820F911DF701958B23
:1036C000848B9E012F5F3F4F4EE967E78FE098E0C4
:1036D0000E94F5438A8190E0982F88272981820FE4
:1036E000911DF701978B868B9701285E3F4F01E074
:1036F00041EA67E78FE098E00E94F54302E09E010F
:103700002F5F3F4F41EE67E78FE098E00E94F5435F
:103710008A8190E0982F88272981820F911DF701D7
:10372000928F818F9701255E3F4F01E043EE67E75F
:103730008FE098E00E94F54303E09E012F5F3F4F2A
:1037400044EE67E78FE098E00E94F5432A813981D3
:10375000822F8F7090E0F0E13F9F800D911D11242A
:10376000F701958F848F207F8B8190E0F0E12F9F70
:10377000800D911D1124F701978F868F01E09E0126
:103780002F5F3F4F47EE67E78FE098E00E94F543D9
:103790008981F70180A30F900F900F900F90DF9118
:1037A000CF910F91FF90EF9008950F931F93CF93B8
:1037B0008C018091E10A9091E20A81FD06C040E00F
:1037C00060E080E797E00E94F62F64E670E080E01A
:1037D00090E00E94B72BC8010E946B1AC82F81305D
:1037E00021F4C8010E94851A01C0C0E08C2FCF913E
:1037F0001F910F9108954F925F926F927F92AF92B7
:10380000BF92CF92DF92EF92FF920F93CF93DF930D
:1038100000D01F92CDB7DEB76C01F62E0E946B1A56
:10382000813009F0C3C043E0E42E00E020E042EF25
:1038300067E78FE098E00E94F24402E020E044EF66
:1038400067E78FE098E00E94F24405E02F2D44EFF7
:1038500067E78FE098E00E94F24402E020E045EF45
:1038600067E78FE098E00E94F24452E0E52E00E026
:1038700021E044EF67E78FE098E00E94F244EF2CEC
:10388000F12C81E0E81AF10882E090E05C010E2C56
:1038900002C0AA0CBB1C0A94E2F7B5016E5F7F4F11
:1038A000072E000C880B990B0E94B72B03E09E019A
:1038B0002F5F3F4F43EF67E78FE098E00E943B4563
:1038C0008981813069F103E09E012F5F3F4F4AEF0C
:1038D00067E78FE098E00E94F543498150E060E09F
:1038E00070E0BA01552744278A8190E0A0E0B0E05B
:1038F000BA2FA92F982F8827480F591F6A1F7B1F9F
:103900008B81480F511D611D711D34E075956795C0
:10391000579547953A95D1F7C6010E94D5164AC0EA
:1039200061E070E002C0660F771FEA94E2F7072EAD
:10393000000C880B990B0E94B64F23E333E343E15D
:1039400050E40E946B5020E030E040EA5FE30E94C8
:103950009B4E2B013C01C5010196BC01990F880BC0
:10396000990B0E94B64F9B01AC01C301B2010E94AA
:103970009A4E0E947E4F6F5F7F4F072E000C880B80
:10398000990B0E94B72B03E09E012F5F3F4F43EF3F
:1039900067E78FE098E00E943B458981813009F01C
:1039A00092CF60E070E48AE794EC04C060E070E0DD
:1039B0008AE794EC0F900F900F90DF91CF910F91C9
:1039C000FF90EF90DF90CF90BF90AF907F906F907F
:1039D0005F904F9008954F925F926F927F928F9277
:1039E0009F92AF92BF92CF92DF92EF92FF920F938E
:1039F000CF93DF93CDB7DEB727970FB6F894DEBF2E
:103A00000FBECDBF6C01F62E0E946B1A813009F0FB
:103A10001FC1B3E0EB2E00E020E042EF67E78FE04C
:103A200098E00E94F24402E02F2D44EF67E78FE018
:103A300098E00E94F24405E02F2D44EF67E78FE005
:103A400098E00E94F24402E020E045EF67E78FE053
:103A500098E00E94F24402E0E02E00E021E044EF12
:103A600067E78FE098E00E94F244EF2CF12C81E0B0
:103A7000E81AF10882E090E05C010E2C02C0AA0C6A
:103A8000BB1C0A94E2F7B5016F5F7F4F072E000C55
:103A9000880B990B0E94B64F2B013C01B501BB0C62
:103AA000880B990B0E94B64F20E030E040E05FE3C6
:103AB0000E949B4E9B01AC01C301B2010E949B4E30
:103AC0004B015C010E947E4F6F5F7F4F072E000C01
:103AD000880B990B0E94B72B03E09E012F5F3F4F8D
:103AE00043EF67E78FE098E00E943B458981813092
:103AF00009F45EC003E09E012F5F3F4F4AEF67E786
:103B00008FE098E00E94F543498150E060E070E06A
:103B1000BA01552744278A8190E0A0E0B0E0BA2F8F
:103B2000A92F982F8827480F591F6A1F7B1F8B8149
:103B3000480F511D611D711D34E0759567955795AE
:103B400047953A95D1F7C6010E94D5169E012F5F81
:103B50003F4F47EF67E78FE098E00E94F5434981C8
:103B600050E060E070E0BA01552744278A8190E078
:103B7000A0E0B0E0BA2FA92F982F8827480F591F2F
:103B80006A1F7B1F8B81480F511D611D711DA4E0B1
:103B90007595679557954795AA95D1F7C6010E94E7
:103BA0005A1720E030E040E85BE30E946B5054C0BD
:103BB00081E090E002C0880F991FEA94E2F7BC010F
:103BC000990F880B990B0E94B64F23E333E343E12F
:103BD00050E40E946B502B013C0120E030E040EAB1
:103BE0005FE30E949B4E6C837D838E839F8323E3E0
:103BF00033E343E15FE3C301B2010E949B4E9B01AB
:103C0000AC016C817D818E819F810E949B4EA501BC
:103C100094010E949A4E0E947E4F6F5F7F4F072E45
:103C2000000C880B990B0E94B72B03E09E012F5FBD
:103C30003F4F43EF67E78FE098E00E943B45898163
:103C4000813009F057CF60E070E48AE794EC04C05B
:103C500060E070E08AE794EC27960FB6F894DEBF38
:103C60000FBECDBFDF91CF910F91FF90EF90DF900E
:103C7000CF90BF90AF909F908F907F906F905F900C
:103C80004F9008954F925F926F927F928F929F9282
:103C9000AF92BF92CF92DF92EF92FF920F93CF93AA
:103CA000DF93CDB7DEB727970FB6F894DEBF0FBE10
:103CB000CDBF6C01F62E0E946B1A813009F00EC147
:103CC000F3E0EF2E00E02F2D42EF67E78FE098E062
:103CD0000E94F24402E020E044EF67E78FE098E0C2
:103CE0000E94F24405E02F2D44EF67E78FE098E053
:103CF0000E94F24402E020E045EF67E78FE098E0A1
:103D00000E94F244A2E0EA2E00E021E044EF67E7DF
:103D10008FE098E00E94F244EF2CF12C81E0E81A49
:103D2000F10882E090E05C010E2C02C0AA0CBB1CE2
:103D30000A94E2F7B5016F5F7F4F072E000C880BE6
:103D4000990B0E94B64F2B013C01B501BB0C880BAF
:103D5000990B0E94B64F20E030E040E05FE30E9404
:103D60009B4E9B01AC01C301B2010E949B4E4B01D3
:103D70005C010E947E4F6F5F7F4F072E000C880B07
:103D8000990B0E94B72B03E09E012F5F3F4F43EF3B
:103D900067E78FE098E00E943B458981813009F414
:103DA0004DC003E09E012F5F3F4F4AEF67E78FE072
:103DB00098E00E94F543498150E060E070E0BA016C
:103DC000552744278A8190E0A0E0B0E0BA2FA92FC0
:103DD000982F8827480F591F6A1F7B1F8B81480F18
:103DE000511D611D711D34E0759567955795479577
:103DF0003A95D1F7C6010E94D51602E09E012F5FC9
:103E00003F4F4DEF67E78FE098E00E94F54349810F
:103E100050E060E070E0762F652F542F44278A81B0
:103E2000480F511D611D711DC6010E94891920E0B6
:103E300030E040E85AE30E946B5054C081E090E0CB
:103E400002C0880F991FEA94E2F7BC01990F880B12
:103E5000990B0E94B64F23E333E343E150E40E9401
:103E60006B502B013C0120E030E040EA5FE30E9410
:103E70009B4E6C837D838E839F8323E333E343E1F7
:103E80005FE3C301B2010E949B4E9B01AC016C81B8
:103E90007D818E819F810E949B4EA50194010E948D
:103EA0009A4E0E947E4F6F5F7F4F072E000C880B4B
:103EB000990B0E94B72B03E09E012F5F3F4F43EF0A
:103EC00067E78FE098E00E943B458981813009F0E7
:103ED00068CF60E070E48AE794EC04C060E070E0D2
:103EE0008AE794EC27960FB6F894DEBF0FBECDBFDD
:103EF000DF91CF910F91FF90EF90DF90CF90BF9027
:103F0000AF909F908F907F906F905F904F900895AB
:103F1000CF93DF93EC0180E092ECA1E0B0E08983E5
:103F20009A83AB83BC8388E893E1A0E0B0E08D8303
:103F30009E83AF83B88784E690E0A0E0B0E08987F5
:103F40009A87AB87BC8781E08D878091F10A909139
:103F5000F20A84609093F20A8093F10A61E088E0AB
:103F60000E94152D61E088E00E94302D61E082E022
:103F70000E94152D60E082E00E94302DFE01E05D80
:103F8000FD4FCE0184599D4F1192119211921192C1
:103F900014AE15AE16AE17AEDF01A458BF4F1D927A
:103FA0001D921D921C921397A65BBF4F1D921D92EE
:103FB0001D921C921397E817F90731F7FE01EE5E88
:103FC000FD4FCE01825D9D4F11921192E817F907C6
:103FD000D9F7FE01E051FD4F108211821282138247
:103FE0003496108211821282138234961082319696
:103FF0001082EF5BFF4F108211821282138234967F
:1040000010821182128213823496108211821282DF
:104010001382389610821182128213823496108293
:10402000118212821382CE5ADC4F188219821A82B0
:104030001B821092F30ADF91CF910895CF92DF9205
:10404000EF92FF920F931F93CF936C01FC01EF5EF1
:10405000FD4F808181112DC066E085E098E00E94CF
:104060009F3A63E085E098E00E949F3A82E090E00A
:104070000E94E32B00E010E08FEC0E94903BC82FE1
:104080000F5F1F4F62E370E080E090E00E94B72B6B
:10409000C33F21F00436110579F704C0C1E00336AF
:1040A000110508F0C0E066E085E098E00E949F3AC4
:1040B00015C085E0E82EF12C08EB1BE020E030E095
:1040C00044E752E067E772E0C6010E94EA3CC82F6D
:1040D00081E0E81AF10811F0C13071F78C2FCF910F
:1040E0001F910F91FF90EF90DF90CF9008950E9465
:1040F000383A81E00E94823A86E00E94903A84E059
:104100000E948B3A66E085E098E00C949F3ACF934A
:10411000DF93FC01EF5EFD4F2081EC01C05FDD4FBE
:1041200021112DC01092070866E085E098E00E94FA
:104130009F3A60E088E00E94152D85E098E00E949B
:104140005B3A60E082E00E94302D8091F30A81307A
:1041500029F18091F30A882309F188E00E94762DE5
:10416000019719F582E00E94762D892BF1F4809158
:10417000F30A8E7F8093F30A81E0188218C081E0F1
:104180000E94312E60E082E00E94302D8091F30A7F
:104190008E7F8093F30A188281E009C041E060E0DD
:1041A00080E797E00E94F62FD8CF80E0E6CFDF913E
:1041B000CF910895EF92FF921F93CF93DF93EC017D
:1041C000FC01EF5EFD4F6083611145C061E088E056
:1041D0000E94152D61E088E00E94302D68EE73E0AA
:1041E00080E090E00E94B72B61E082E00E94152DF4
:1041F00060E082E00E94302D68EE73E080E090E0A5
:104200000E94B72B61E082E00E94302D68EE73E0DF
:1042100080E090E00E94B72B81E080930708CE01F8
:104220000E94772068EE73E080E090E00E94B72B58
:104230008091E10A9091E20A81FD06C040E060E0D1
:1042400080E797E00E94F62F68EE73E080E090E050
:104250000E94B72B1FC061E082E00E94152D61E033
:1042600082E00E94302D68E873E180E090E00E94D7
:10427000B72B80E895E2A0E0B0E089839A83AB8316
:10428000BC8381E08883CE010E94A93B8EE098E048
:104290000E941240CE010E941E20182FCE01805F86
:1042A0009D4F7C0111110BC0CE010E94872090917F
:1042B000F30A9E7F9093F30AF701108208C0909151
:1042C000F30A91609093F30A81E0F701808360ED37
:1042D00077E080E090E00E94B72B812FDF91CF91B3
:1042E0001F91FF90EF9008958F929F92AF92BF928F
:1042F000CF92DF92EF92FF920F931F93CF93DF93B2
:10430000CDB7DEB72A970FB6F894DEBF0FBECDBF8C
:104310006C015B01FC01EF5EFD4F8081811144C0A7
:1043200063E085E098E00E949F3A84E690E00E9476
:10433000E32BC12CD12C8FE30E94903B182F8FEFE1
:10434000C81AD80A6EE170E080E090E00E94B72BB6
:10435000133F29F094E6C916D10469F772C0E4E668
:10436000CE16D10409F46DC062E070E080E090E008
:104370000E94B72B65014501FAE38F0E911C8FE374
:104380000E94903BF60181936F0188E090E00E94CB
:10439000E32BC814D90499F7F50112AE66E085E065
:1043A00098E00E949F3A4BC0CE0101964C018AE0F2
:1043B000F40111928A95E9F76BE772E0C4010E945B
:1043C0004E5741E060E875E280E090E00E94BD2D2C
:1043D0008EE098E00E94124064E670E080E090E099
:1043E0000E94B72B10EDE12E17E0F12E00E010E057
:1043F00023E832E049E852E0B401C6010E94053DDD
:104400008130C9F420ED37E040E050E064E772E02D
:10441000C6010E94EE3D813081F48CE3F5011192DA
:104420008A95E9F7B601615F7F4F4CE350E0C50123
:104430000E94555704C085EF05C084EF03C081E09A
:1044400001C08FEF2A960FB6F894DEBF0FBECDBF26
:10445000DF91CF911F910F91FF90EF90DF90CF9060
:10446000BF90AF909F908F900895FF920F931F93EE
:10447000CF93DF93FC01EF5EFD4F8081811134C04B
:10448000162F64E670E080E090E00E94B72B63E0B6
:1044900085E098E00E949F3A82E090E00E94E32B42
:1044A000C0E0D0E083E00E94903BF82E62E070E034
:1044B00080E090E00E94B72B812F0E94903B082F54
:1044C0006AE070E080E090E00E94B72B219683EFD5
:1044D000F81202C0033021F0C431D10519F706C02B
:1044E000649721F081E003C08DEF01C08FEFDF9171
:1044F000CF911F910F91FF9008952F923F924F926D
:104500005F926F927F928F929F92AF92BF92CF9263
:10451000DF92EF92FF920F931F93CF93DF93CDB76C
:10452000DEB7C454D1090FB6F894DEBF0FBECDBFBD
:104530006C01FC01EF5EFD4F8081811132C064E6A9
:1045400070E080E090E00E94B72B63E085E098E0A7
:104550000E949F3AA12CB12C80E30E94903B182F1F
:104560006AE070E080E090E00E94B72B8FEFA81A1D
:10457000B80A133F09F44EC166E085E098E00E9456
:104580009F3A64E670E080E090E00E94B72B63E021
:1045900085E098E00E949F3A94E6A916B104E1F6FE
:1045A000E4C15601F6E0AF1AFDEFBF0AC6018A5C0E
:1045B0009C4FF5011192119211921192E817F9078F
:1045C000C9F7360186EC681A8CEF780AD3011D9280
:1045D0001D921D921C921397F601E25CFC4F2196EE
:1045E000FFAFEEAF219710821182128213823496B0
:1045F0002396FFAFEEAF23971082118212821382AF
:104600002601B6EB4B1ABCEF5B0AF2011082118255
:10461000128213821601F2EB2F1AFCEF3F0AD1012E
:104620001D921D921D921C921397F601EE5AFC4F9B
:104630002596FFAFEEAF259710821182128213826A
:10464000FE0131964F018AE0DF011D928A95E9F75C
:104650006EE872E0CF010E944E5741E060E875E2DB
:1046600080E090E00E94BD2D8EE098E00E94124014
:1046700064E670E080E090E00E94B72B10EDE12E40
:1046800017E0F12E00E010E023E832E046E952E0C6
:10469000B401C6010E94053D813009F0B7C020ED8C
:1046A00037E040E050E064E772E0C6010E94EE3D72
:1046B000182F813009F0ACC06BE972E0C6010F968B
:1046C0000E94325760E070E00E945655F20160830C
:1046D0007183828393836BE972E080E090E00E94B3
:1046E000325760E070E00E945655D1016D937D9382
:1046F0008D939C9313976BE972E080E090E00E94A9
:10470000325760E070E00E9456552596EEADFFAD41
:10471000259760837183828393836BE972E080E0E5
:1047200090E00E9432570E94C556092E000CAA0B39
:10473000BB0BF50181939193A193B1935F01E615B2
:10474000F70559F76BE972E080E090E00E9432577C
:104750000E94C556F601EA5BFC4F80836BE972E06C
:1047600080E090E00E9432570E94C556F601E95B56
:10477000FC4F80836BE972E080E090E00E9432574A
:104780000E94C556F601E85BFC4F80836BE972E03E
:1047900080E090E00E9432570E94C556F601E75B28
:1047A000FC4F80836BE972E080E090E00E9432571A
:1047B00060E070E00E945655D5016D937D938D9316
:1047C0009C9313976BE972E080E090E00E9432576F
:1047D00060E070E00E9456552196EEADFFAD219746
:1047E000608371838283938361E872E080E090E06C
:1047F0000E9432570E94E3562396AEADBFAD239779
:104800006D937D938D939C931397ADC085EFAFC04F
:1048100084EFADC0B4E6AB16B10409F4A6C011E054
:10482000DE0111965D013E01BFE36B0E711C450177
:1048300088E090E00E94E32B80E30E94903BF4012B
:1048400081934F01E615F70599F766E085E098E05A
:104850000E949F3A2AA930E0322F222789A9280FE7
:10486000311D3601F6E06F1AFDEF7F0ABE016F5D64
:104870007F4F40E050E0D50111968C9190E0A0E090
:10488000B0E0BA2FA92F982F8827F50190808929A9
:10489000F30181939193A193B1933F01480F591F65
:1048A000F2E0AF0EB11CA616B70629F74217530760
:1048B00009F01EEFF601EA5BFC4F89A18083319677
:1048C0008AA1808331968BA1808331968CA18083CD
:1048D000560186ECA81A8CEFB80A6DA17EA18FA1B3
:1048E00098A50E94B44F20E030E040E251E40E94DD
:1048F0000C4FD5016D937D938D939C931397560127
:10490000B2ECAB1ABCEFBB0A69A57AA58BA59CA536
:104910000E94B44FF5016083718382839383349640
:104920008DA59EA5AFA5B8A980839183A283B383EB
:1049300038968BA99CA9ADA9BEA980839183A28337
:10494000B38334968FA998ADA9ADBAAD8083918316
:10495000A283B38334968BAD9CADADADBEAD8083E9
:104960009183A283B383812F02C01FEF59CFCC5B09
:10497000DF4F0FB6F894DEBF0FBECDBFDF91CF91F2
:104980001F910F91FF90EF90DF90CF90BF90AF906D
:104990009F908F907F906F905F904F903F902F905F
:1049A00008952F923F924F925F926F927F928F92D3
:1049B0009F92AF92BF92CF92DF92EF92FF920F93AE
:1049C0001F93CF93DF93CDB7DEB7A5970FB6F894BB
:1049D000DEBF0FBECDBF6C012A013B01088F198FCE
:1049E0002A8F3B8FFC01EF5EFD4F808196012650A0
:1049F0003D4F86010A5C1C4F5901F9018111A9C084
:104A00001192119211921192E017F107C9F7460124
:104A100026EC821A2CEF920AF40110821182128283
:104A200013821601F2EC2F1AFCEF3F0AF1011082FB
:104A30001182128213827601FEEBEF1AFCEFFF0A5D
:104A4000F70110821182128213829601265B3C4F7D
:104A50003D8F2C8FF90110821182128213822C5FFC
:104A60003F4F3F8F2E8FF9011082118212821382E5
:104A70002C5F3F4F39A328A3F901108211821282C3
:104A80001382C6010E947720C6010E941E2064E6A0
:104A900070E080E090E00E94B72B60E0C6010E94C9
:104AA0003522813009F097C1C301B2016C507E4FAD
:104AB0008F4F9F4F0E94B72BC6010E947D228130ED
:104AC00011F0825088C1688D798D8A8D9B8D0E94EE
:104AD000B72BC6010E947D22813061F1F501119250
:104AE0001192119211925F01E017F107B9F7F401E9
:104AF0001082118212821382F101108211821282BD
:104B00001382F7011082118212821382EC8DFD8DC7
:104B10001082118212821382EE8DFF8D108211821B
:104B200012821382E8A1F9A11082118212821382EB
:104B3000845051C164E670E080E090E00E94B72BA1
:104B400061E0C6010E943522813009F443C18650DC
:104B500042C11192119211921192E017F107C9F717
:104B60001601F6EC2F1AFCEF3F0AF10110821182B8
:104B7000128213829601225C3C4F3D8F2C8FF901EB
:104B800010821182128213822C5F3F4F3F8F2E8F33
:104B9000F9011082118212821382285F3F4F39A3DC
:104BA00028A3F90110821182128213822C5F3F4FD9
:104BB0003BA32AA3F90110821182128213822C5F77
:104BC0003F4F3DA32CA3F901108211821282138260
:104BD00087E19E012F5F3F4F4901F901282F119274
:104BE0002A95E9F73B8D3F939A8D9F93E98DEF933B
:104BF000F88DFF937F926F925F924F922DE932E092
:104C00003F932F931F928F939F928F920E94A8574A
:104C1000888D998DAA8DBB8D88579C4EAF4FBF4F05
:104C2000480E591E6A1E7B1E41E060E875E280E076
:104C300090E00E94BD2D8EE098E00E94124064E654
:104C400070E080E090E00E94B72B8301720123E8BE
:104C500032E04FEA52E0B401C6010E94053D0FB6B2
:104C6000F894DEBF0FBECDBF813009F0AFC020ED9C
:104C700037E040E050E064E772E0C6010E94EE3D9C
:104C8000813009F0A5C06BE972E0C6010F960E9461
:104C9000325760E070E00E945655E8A1F9A16083A8
:104CA0007183828393836BE972E080E090E00E94DD
:104CB000325760E070E00E945655EAA1FBA1608384
:104CC0007183828393836BE972E080E090E00E94BD
:104CD000325760E070E00E945655ECA1FDA1608360
:104CE0007183828393836BE972E080E090E00E949D
:104CF00032570E94C556092E000CAA0BBB0BF501BA
:104D000081939193A193B1935F01E215F30559F754
:104D10006BE972E080E090E00E9432570E94C55635
:104D2000F601EA5BFC4F80836BE972E080E090E083
:104D30000E9432570E94C556F601E95BFC4F808302
:104D40006BE972E080E090E00E9432570E94C55605
:104D5000F601E85BFC4F80836BE972E080E090E055
:104D60000E9432570E94C556F601E75BFC4F8083D4
:104D70006BE972E080E090E00E94325760E070E002
:104D80000E945655F50160837183828393836BE99A
:104D900072E080E090E00E94325760E070E00E9494
:104DA0005655EC8DFD8D608371838283938361E81A
:104DB00072E080E090E00E9432570E94E356EE8D50
:104DC000FF8D608371838283938304C085EF03C06A
:104DD00084EF01C081E0A5960FB6F894DEBF0FBE48
:104DE000CDBFDF91CF911F910F91FF90EF90DF909A
:104DF000CF90BF90AF909F908F907F906F905F907B
:104E00004F903F902F9008950F931F938A019B011D
:104E100040E050E0BA010E94D1241F910F91089503
:104E200081E094E00C94881FF8948091EB0A9091B3
:104E3000EC0A80FF18C086E20E94762D892B99F03B
:104E40008091EE0A8F5F8093EE0A8091EF0A909135
:104E5000F00A81609093F00A8093EF0A8091E30A50
:104E60008F5F8093E30A8091EB0A9091EC0A81FFB7
:104E700018C087E20E94762D892B99F08091EE0A66
:104E80008F5F8093EE0A8091EF0A9091F00A826022
:104E90009093F00A8093EF0A8091E40A8F5F8093E9
:104EA000E40A8091EB0A9091EC0A83FF1CC088E031
:104EB0000E94762D892BB9F08091EE0A8F5F809346
:104EC000EE0A60E085E00E94302D8091EF0A90911B
:104ED000F00A88609093F00A8093EF0A8091E60AC6
:104EE0008F5F8093E60A8091EB0A9091EC0A87FF2E
:104EF00018C08DE20E94762D892B99F08091EE0AE0
:104F00008F5F8093EE0A8091EF0A9091F00A80689B
:104F10009093F00A8093EF0A8091E90A8F5F809363
:104F2000E90A8091EB0A9091EC0A90FF18C082E1A7
:104F30000E94762D892B99F08091EE0A8F5F8093E5
:104F4000EE0A8091EF0A9091F00A91609093F00A36
:104F50008093EF0A8091EA0A8F5F8093EA0A80913A
:104F6000EB0A9091EC0A84FF1EC080915D088734A3
:104F700010F081E101C089E00E94762D892B99F41F
:104F80008091EE0A8F5F8093EE0A8091EF0A9091F4
:104F9000F00A80619093F00A8093EF0A8091E70A0B
:104FA0008F5F8093E70A78940895E82FF0E0EE0F82
:104FB000FF1FE95AF84F71836083823019F128F49A
:104FC000882341F0813081F00895833051F184309D
:104FD000B9F10895E898809169008C7F482B40933F
:104FE0006900E09AE89A0895E99880916900440F71
:104FF000551F440F551F837F482B40936900E19A4A
:10500000E99A0895EA988091690024E0440F551FB9
:105010002A95E1F78F7C482B40936900E29AEA9A3F
:105020000895EB988091690096E0440F551F9A957A
:10503000E1F78F73482B40936900E39AEB9A089548
:10504000EC9880916A008C7F482B40936A00E49A28
:10505000EC9A0895F8948830F8F4482F50E04830DE
:10506000510590F4FA01EA59FF4F0C942153E89846
:105070000BC0E99809C0EA9807C0EB9805C0EC9806
:1050800003C0EE9801C0EF98E82FF0E0EE0FFF1F8D
:10509000E95AF84F11821082789408951F920F9266
:1050A0000FB60F9211240BB60F922F933F934F938D
:1050B0005F936F937F938F939F93AF93BF93EF9380
:1050C000FF938091570790915807892B29F0E09121
:1050D0005707F09158070995FF91EF91BF91AF9154
:1050E0009F918F917F916F915F914F913F912F9100
:1050F0000F900BBE0F900FBE0F901F9018951F9230
:105100000F920FB60F9211240BB60F922F933F936D
:105110004F935F936F937F938F939F93AF93BF93BF
:10512000EF93FF938091590790915A07892B29F0AB
:10513000E0915907F0915A070995FF91EF91BF91BE
:10514000AF919F918F917F916F915F914F913F911F
:105150002F910F900BBE0F900FBE0F901F901895C0
:105160001F920F920FB60F9211240BB60F922F932E
:105170003F934F935F936F937F938F939F93AF93DF
:10518000BF93EF93FF9383B78E7F83BF80915B07BD
:1051900090915C07892B29F0E0915B07F0915C0707
:1051A0000995FF91EF91BF91AF919F918F917F9161
:1051B0006F915F914F913F912F910F900BBE0F9088
:1051C0000FBE0F901F9018951F920F920FB60F925F
:1051D00011240BB60F922F933F934F935F936F93CE
:1051E0007F938F939F93AF93BF93EF93FF9383B777
:1051F0008E7F83BF80915D0790915E07892B29F098
:10520000E0915D07F0915E070995FF91EF91BF91E5
:10521000AF919F918F917F916F915F914F913F914E
:105220002F910F900BBE0F900FBE0F901F901895EF
:105230001F920F920FB60F9211240BB60F922F935D
:105240003F934F935F936F937F938F939F93AF930E
:10525000BF93EF93FF9380915F0790916007892B35
:1052600029F0E0915F07F09160070995FF91EF91B8
:10527000BF91AF919F918F917F916F915F914F916E
:105280003F912F910F900BBE0F900FBE0F901F906C
:1052900018951F920F920FB60F9211240BB60F9212
:1052A0002F933F934F935F936F937F938F939F932E
:1052B000AF93BF93EF93FF93809161079091620743
:1052C000892B29F0E0916107F09162070995FF9120
:1052D000EF91BF91AF919F918F917F916F915F916E
:1052E0004F913F912F910F900BBE0F900FBE0F90DB
:1052F0001F9018951F920F920FB60F9211240BB6A4
:105300000F922F933F934F935F936F937F938F935E
:105310009F93AF93BF93EF93FF9380916307909117
:105320006407892B29F0E0916307F09164070995E0
:10533000FF91EF91BF91AF919F918F917F916F916D
:105340005F914F913F912F910F900BBE0F900FBE29
:105350000F901F9018951F920F920FB60F92112465
:105360000BB60F922F933F934F935F936F937F935F
:105370008F939F93AF93BF93EF93FF9380916507B4
:1053800090916607892B29F0E0916507F0916607F7
:105390000995FF91EF91BF91AF919F918F917F916F
:1053A0006F915F914F913F912F910F900BBE0F9096
:1053B0000FBE0F901F901895CF92DF92EF92FF9241
:1053C0006B017C018091EB0A9091EC0A8C299D295C
:1053D0009093EC0A8093EB0AC0FE0FC060E08BE272
:1053E0000E94152D60E086E20E94152D43E050E0FA
:1053F00064E177E282E00E94D527C1FE0FC060E041
:105400008BE20E94152D60E087E20E94152D43E09B
:1054100050E064E177E282E00E94D527C2FE0FC02F
:1054200061E083E00E94152D61E083E00E94302D51
:1054300042E050E06EEB7AE284E00E94D527C3FEA2
:105440000FC060E08BE20E94152D60E088E00E94B2
:10545000152D43E050E064E177E282E00E94D52719
:10546000C4FE0BC060E08BE20E94152D43E050E0CB
:1054700064E177E282E00E94D527C6FE13C060E0B7
:1054800084E00E94152D60E08CE20E94152D61E001
:105490008CE20E94302D42E050E06EEB7AE283E035
:1054A0000E94D527C7FE0FC060E08DE20E94152D37
:1054B00060E08BE20E94152D43E050E064E177E26A
:1054C00082E00E94D527D0FE13C060E08BE20E94EC
:1054D000152D60E082E10E94152D43E050E064E16B
:1054E00077E282E0FF90EF90DF90CF900C94D52789
:1054F000FF90EF90DF90CF900895CF92DF92EF92E0
:10550000FF926B017C01F89460FF03C082E00E946F
:105510002A28C1FE03C082E00E942A28C2FE03C0DE
:1055200084E00E942A28C3FE03C082E00E942A2849
:10553000C4FE03C082E00E942A28C7FE03C082E0A6
:105540000E942A28D0FE03C082E00E942A28C6FEBC
:1055500003C083E00E942A288091EB0A9091EC0A14
:10556000C094D094C822D922D092EC0AC092EB0AFF
:105570007894FF90EF90DF90CF900895F894809109
:10558000EB0A9091EC0A86FF1EC084E00E94762D03
:10559000892BC9F48091EE0A8F5F8093EE0A809187
:1055A000EF0A9091F00A80649093F00A8093EF0ADA
:1055B0008091E80A8F5F8093E80A60E470E080E001
:1055C00090E00E947D2A8091EB0A9091EC0A82FF84
:1055D0001CC083E00E94762D892BB9F48091EE0ADD
:1055E0008F5F8093EE0A8091EF0A9091F00A8460B9
:1055F0009093F00A8093EF0A8091E50A8F5F809381
:10560000E50A61E083E00E94302D789408951F92AE
:105610000F920FB60F9211240BB60F922F933F9358
:105620004F935F936F937F938F939F93AF93BF93AA
:10563000EF93FF93F89481E080930A02E0E6F0E0B4
:1056400080818068808380818F7B808360E083E0BD
:105650000E94302D7894FF91EF91BF91AF919F916F
:105660008F917F916F915F914F913F912F910F900B
:105670000BBE0F900FBE0F901F9018951F920F92A8
:105680000FB60F9211248F939F93AF93BF93809186
:10569000F40A9091F50AA091F60AB091F70A0196E2
:1056A000A11DB11D8093F40A9093F50AA093F60A08
:1056B000B093F70ABF91AF919F918F910F900FBE5A
:1056C0000F901F9018951F920F920FB60F921124F2
:1056D0008F939F93AF93BF938091F80A9091F90AAB
:1056E000A091FA0AB091FB0A0196A11DB11D809309
:1056F000F80A9093F90AA093FA0AB093FB0ABF91B3
:10570000AF919F918F910F900FBE0F901F901895A2
:10571000AF92BF92CF92DF92EF92FF920F931F93BF
:105720002FB7F8946091F40A7091F50A8091F60A07
:105730009091F70A2FBF2AE030E040E050E00E944D
:10574000A553E9E0AE2EB12CC12CD12CE12CF12CCB
:1057500000E010E00E940354B901CA011F910F91AB
:10576000FF90EF90DF90CF90BF90AF9008958F9211
:105770009F92AF92BF92CF92DF92EF92FF924B0136
:105780005C010E94882B6B017C010E94882BDC014C
:10579000CB018C199D09AE09BF0988159905AA0589
:1057A000BB0540F40E94882B6C157D058E059F0576
:1057B00060F7E7CFFF90EF90DF90CF90BF90AF9072
:1057C0009F908F900895BC01049768F080E090E06E
:1057D0000E94B44F26E636E646EE5FE30E946B5029
:1057E0000E94854F02C0660F771F6130710561F01E
:1057F0006250710949F0660F771FCB0101972FB7EF
:10580000F8940197F1F72FBF0895789484B7877FB4
:1058100084BF1092F40A1092F50A1092F60A1092C0
:10582000F70A84B5826084BD84B5816084BD85B586
:10583000826085BD85B5816085BDEEE6F0E0808142
:1058400081608083E1E8F0E08081826080838081F4
:1058500081608083E0E8F0E0808181608083E1EB1B
:10586000F0E0808184608083E1E9F0E08081846001
:105870008083E0EBF0E0808181608083E0E9F0E00C
:10588000808181608083E4E6F0E080818E7F808388
:10589000ECE7F0E080818F77808380818064808373
:1058A000EAE7F0E080818460808380818260808389
:1058B0008081816080838081806880831092C100B4
:1058C0001092C900089590916707982B90936707ED
:1058D00080FF32C0809164008E7F8093640080914D
:1058E0007C008F7780937C0080917C008064809323
:1058F0007C0080917A00846080937A0080917A00A5
:10590000826080937A0080917A00806880937A0028
:10591000809164008F7780936400809164008B7F16
:1059200080936400809164008D7F809364008091F7
:1059300065008E7F809365000895982F9095209143
:10594000670792239093670780FF1EC080917A00BB
:105950008F7780937A0080916400816080936400E7
:10596000809164008068809364008091640084600A
:1059700080936400809164008260809364008091D1
:105980006500816080936500089580930B028330E9
:1059900021F480917C00806814C0823021F48091D1
:1059A0007C00806805C0811109C080917C008F77E0
:1059B00080937C0080917C008F7B08C080917C006C
:1059C0008F7780937C0080917C00806480937C0042
:1059D0006AE070E080E090E00C94B72B90917C003E
:1059E00020917A00206820937A009F70981769F0C0
:1059F00090917C008F70907F892B80937C0061E078
:105A000070E080E090E00E94B72B80917A00806483
:105A100080937A0080917A0086FDFCCF8091780097
:105A20002091790090E0922B089590E0FC01EF5CCA
:105A3000F84F2491FC01EA59F84FE491EE2379F0F4
:105A4000F0E0E555F84FA491B0E0611105C08C91EC
:105A5000E22FE095E82302C0EC91E22BEC9308954D
:105A600090E0FC01E450F94F3491FC01EF5CF84FF9
:105A70002491FC01EA59F84F84918823B1F1332332
:105A800031F1333021F4909180009F7705C034309C
:105A900031F4909180009F7D9093800018C0313048
:105AA00019F494B59F7704C0323021F494B59F7DEA
:105AB00094BD0DC0363021F49091B0009F7705C0A1
:105AC000373029F49091B0009F7D9093B000E82F7B
:105AD000F0E0ED55F84FA491B0E0EC91611103C0F6
